{
    "_format": "hh-sol-artifact-1",
    "contractName": "NFTContract",
    "sourceName": "contracts/NFTContract.sol",
    "abi": [
        {
            "inputs": [],
            "stateMutability": "nonpayable",
            "type": "constructor"
        },
        {
            "anonymous": false,
            "inputs": [
                {
                    "indexed": true,
                    "internalType": "address",
                    "name": "owner",
                    "type": "address"
                },
                {
                    "indexed": true,
                    "internalType": "address",
                    "name": "approved",
                    "type": "address"
                },
                {
                    "indexed": true,
                    "internalType": "uint256",
                    "name": "tokenId",
                    "type": "uint256"
                }
            ],
            "name": "Approval",
            "type": "event"
        },
        {
            "anonymous": false,
            "inputs": [
                {
                    "indexed": true,
                    "internalType": "address",
                    "name": "owner",
                    "type": "address"
                },
                {
                    "indexed": true,
                    "internalType": "address",
                    "name": "operator",
                    "type": "address"
                },
                {
                    "indexed": false,
                    "internalType": "bool",
                    "name": "approved",
                    "type": "bool"
                }
            ],
            "name": "ApprovalForAll",
            "type": "event"
        },
        {
            "anonymous": false,
            "inputs": [
                {
                    "indexed": true,
                    "internalType": "address",
                    "name": "to",
                    "type": "address"
                },
                {
                    "indexed": false,
                    "internalType": "string",
                    "name": "tokenURI",
                    "type": "string"
                },
                {
                    "indexed": false,
                    "internalType": "uint256",
                    "name": "tokenId",
                    "type": "uint256"
                }
            ],
            "name": "MintToken",
            "type": "event"
        },
        {
            "anonymous": false,
            "inputs": [
                {
                    "indexed": true,
                    "internalType": "address",
                    "name": "previousOwner",
                    "type": "address"
                },
                {
                    "indexed": true,
                    "internalType": "address",
                    "name": "newOwner",
                    "type": "address"
                }
            ],
            "name": "OwnershipTransferred",
            "type": "event"
        },
        {
            "anonymous": false,
            "inputs": [
                {
                    "indexed": true,
                    "internalType": "address",
                    "name": "from",
                    "type": "address"
                },
                {
                    "indexed": true,
                    "internalType": "address",
                    "name": "to",
                    "type": "address"
                },
                {
                    "indexed": true,
                    "internalType": "uint256",
                    "name": "tokenId",
                    "type": "uint256"
                }
            ],
            "name": "Transfer",
            "type": "event"
        },
        {
            "inputs": [
                {
                    "internalType": "address",
                    "name": "to",
                    "type": "address"
                },
                {
                    "internalType": "uint256",
                    "name": "tokenId",
                    "type": "uint256"
                }
            ],
            "name": "approve",
            "outputs": [],
            "stateMutability": "nonpayable",
            "type": "function"
        },
        {
            "inputs": [
                {
                    "internalType": "address",
                    "name": "owner",
                    "type": "address"
                }
            ],
            "name": "balanceOf",
            "outputs": [
                {
                    "internalType": "uint256",
                    "name": "",
                    "type": "uint256"
                }
            ],
            "stateMutability": "view",
            "type": "function"
        },
        {
            "inputs": [
                {
                    "internalType": "uint256",
                    "name": "tokenId",
                    "type": "uint256"
                }
            ],
            "name": "getApproved",
            "outputs": [
                {
                    "internalType": "address",
                    "name": "",
                    "type": "address"
                }
            ],
            "stateMutability": "view",
            "type": "function"
        },
        {
            "inputs": [],
            "name": "getCurrentTokenId",
            "outputs": [
                {
                    "internalType": "uint256",
                    "name": "",
                    "type": "uint256"
                }
            ],
            "stateMutability": "view",
            "type": "function"
        },
        {
            "inputs": [
                {
                    "internalType": "address",
                    "name": "owner",
                    "type": "address"
                },
                {
                    "internalType": "address",
                    "name": "operator",
                    "type": "address"
                }
            ],
            "name": "isApprovedForAll",
            "outputs": [
                {
                    "internalType": "bool",
                    "name": "",
                    "type": "bool"
                }
            ],
            "stateMutability": "view",
            "type": "function"
        },
        {
            "inputs": [
                {
                    "internalType": "address",
                    "name": "to",
                    "type": "address"
                },
                {
                    "internalType": "string",
                    "name": "tokenURI",
                    "type": "string"
                }
            ],
            "name": "mintToken",
            "outputs": [],
            "stateMutability": "nonpayable",
            "type": "function"
        },
        {
            "inputs": [],
            "name": "name",
            "outputs": [
                {
                    "internalType": "string",
                    "name": "",
                    "type": "string"
                }
            ],
            "stateMutability": "view",
            "type": "function"
        },
        {
            "inputs": [],
            "name": "owner",
            "outputs": [
                {
                    "internalType": "address",
                    "name": "",
                    "type": "address"
                }
            ],
            "stateMutability": "view",
            "type": "function"
        },
        {
            "inputs": [
                {
                    "internalType": "uint256",
                    "name": "tokenId",
                    "type": "uint256"
                }
            ],
            "name": "ownerOf",
            "outputs": [
                {
                    "internalType": "address",
                    "name": "",
                    "type": "address"
                }
            ],
            "stateMutability": "view",
            "type": "function"
        },
        {
            "inputs": [],
            "name": "renounceOwnership",
            "outputs": [],
            "stateMutability": "nonpayable",
            "type": "function"
        },
        {
            "inputs": [
                {
                    "internalType": "address",
                    "name": "from",
                    "type": "address"
                },
                {
                    "internalType": "address",
                    "name": "to",
                    "type": "address"
                },
                {
                    "internalType": "uint256",
                    "name": "tokenId",
                    "type": "uint256"
                }
            ],
            "name": "safeTransferFrom",
            "outputs": [],
            "stateMutability": "nonpayable",
            "type": "function"
        },
        {
            "inputs": [
                {
                    "internalType": "address",
                    "name": "from",
                    "type": "address"
                },
                {
                    "internalType": "address",
                    "name": "to",
                    "type": "address"
                },
                {
                    "internalType": "uint256",
                    "name": "tokenId",
                    "type": "uint256"
                },
                {
                    "internalType": "bytes",
                    "name": "_data",
                    "type": "bytes"
                }
            ],
            "name": "safeTransferFrom",
            "outputs": [],
            "stateMutability": "nonpayable",
            "type": "function"
        },
        {
            "inputs": [
                {
                    "internalType": "address",
                    "name": "operator",
                    "type": "address"
                },
                {
                    "internalType": "bool",
                    "name": "approved",
                    "type": "bool"
                }
            ],
            "name": "setApprovalForAll",
            "outputs": [],
            "stateMutability": "nonpayable",
            "type": "function"
        },
        {
            "inputs": [
                {
                    "internalType": "bytes4",
                    "name": "interfaceId",
                    "type": "bytes4"
                }
            ],
            "name": "supportsInterface",
            "outputs": [
                {
                    "internalType": "bool",
                    "name": "",
                    "type": "bool"
                }
            ],
            "stateMutability": "view",
            "type": "function"
        },
        {
            "inputs": [],
            "name": "symbol",
            "outputs": [
                {
                    "internalType": "string",
                    "name": "",
                    "type": "string"
                }
            ],
            "stateMutability": "view",
            "type": "function"
        },
        {
            "inputs": [
                {
                    "internalType": "uint256",
                    "name": "tokenId",
                    "type": "uint256"
                }
            ],
            "name": "tokenURI",
            "outputs": [
                {
                    "internalType": "string",
                    "name": "",
                    "type": "string"
                }
            ],
            "stateMutability": "view",
            "type": "function"
        },
        {
            "inputs": [
                {
                    "internalType": "address",
                    "name": "from",
                    "type": "address"
                },
                {
                    "internalType": "address",
                    "name": "to",
                    "type": "address"
                },
                {
                    "internalType": "uint256",
                    "name": "tokenId",
                    "type": "uint256"
                }
            ],
            "name": "transferFrom",
            "outputs": [],
            "stateMutability": "nonpayable",
            "type": "function"
        },
        {
            "inputs": [
                {
                    "internalType": "address",
                    "name": "newOwner",
                    "type": "address"
                }
            ],
            "name": "transferOwnership",
            "outputs": [],
            "stateMutability": "nonpayable",
            "type": "function"
        }
    ],
    "bytecode": "0x60806040523480156200001157600080fd5b50604080518082018252600b81526a13919510dbdb9d1c9858dd60aa1b60208083019182528351808501909452600384526213919560ea1b9084015281519192916200006091600091620000ef565b50805162000076906001906020840190620000ef565b505050620000936200008d6200009960201b60201c565b6200009d565b620001d1565b3390565b600780546001600160a01b038381166001600160a01b0319831681179093556040519116919082907f8be0079c531659141344cd1fd0a4f28419497f9722a3daafe3b4186f6b6457e090600090a35050565b828054620000fd9062000195565b90600052602060002090601f0160209004810192826200012157600085556200016c565b82601f106200013c57805160ff19168380011785556200016c565b828001600101855582156200016c579182015b828111156200016c5782518255916020019190600101906200014f565b506200017a9291506200017e565b5090565b5b808211156200017a57600081556001016200017f565b600181811c90821680620001aa57607f821691505b602082108103620001cb57634e487b7160e01b600052602260045260246000fd5b50919050565b611a4380620001e16000396000f3fe608060405234801561001057600080fd5b50600436106101165760003560e01c806370a08231116100a2578063a22cb46511610071578063a22cb4651461022e578063b88d4fde14610241578063c87b56dd14610254578063e985e9c514610267578063f2fde38b146102a357600080fd5b806370a08231146101fa578063715018a61461020d5780638da5cb5b1461021557806395d89b411461022657600080fd5b806323b872dd116100e957806323b872dd146101985780633d02d0c9146101ab57806342842e0e146101be57806356189236146101d15780636352211e146101e757600080fd5b806301ffc9a71461011b57806306fdde0314610143578063081812fc14610158578063095ea7b314610183575b600080fd5b61012e610129366004611465565b6102b6565b60405190151581526020015b60405180910390f35b61014b610308565b60405161013a91906114da565b61016b6101663660046114ed565b61039a565b6040516001600160a01b03909116815260200161013a565b610196610191366004611522565b610427565b005b6101966101a636600461154c565b61053c565b6101966101b9366004611588565b61056d565b6101966101cc36600461154c565b6106f5565b6101d9610710565b60405190815260200161013a565b61016b6101f53660046114ed565b610720565b6101d961020836600461160b565b610797565b61019661081e565b6007546001600160a01b031661016b565b61014b610854565b61019661023c366004611626565b610863565b61019661024f366004611678565b610872565b61014b6102623660046114ed565b6108aa565b61012e610275366004611754565b6001600160a01b03918216600090815260056020908152604080832093909416825291909152205460ff1690565b6101966102b136600461160b565b610a20565b60006001600160e01b031982166380ac58cd60e01b14806102e757506001600160e01b03198216635b5e139f60e01b145b8061030257506301ffc9a760e01b6001600160e01b03198316145b92915050565b60606000805461031790611787565b80601f016020809104026020016040519081016040528092919081815260200182805461034390611787565b80156103905780601f1061036557610100808354040283529160200191610390565b820191906000526020600020905b81548152906001019060200180831161037357829003601f168201915b5050505050905090565b60006103a582610abb565b61040b5760405162461bcd60e51b815260206004820152602c60248201527f4552433732313a20617070726f76656420717565727920666f72206e6f6e657860448201526b34b9ba32b73a103a37b5b2b760a11b60648201526084015b60405180910390fd5b506000908152600460205260409020546001600160a01b031690565b600061043282610720565b9050806001600160a01b0316836001600160a01b03160361049f5760405162461bcd60e51b815260206004820152602160248201527f4552433732313a20617070726f76616c20746f2063757272656e74206f776e656044820152603960f91b6064820152608401610402565b336001600160a01b03821614806104bb57506104bb8133610275565b61052d5760405162461bcd60e51b815260206004820152603860248201527f4552433732313a20617070726f76652063616c6c6572206973206e6f74206f7760448201527f6e6572206e6f7220617070726f76656420666f7220616c6c00000000000000006064820152608401610402565b6105378383610ad8565b505050565b6105463382610b46565b6105625760405162461bcd60e51b8152600401610402906117c1565b610537838383610c2f565b6007546001600160a01b031633146105975760405162461bcd60e51b815260040161040290611812565b6001600160a01b0383166105ed5760405162461bcd60e51b815260206004820152601a60248201527f53686f756c64206e6f74206265207a65726f20616464726573730000000000006044820152606401610402565b6001600160a01b0383163b156106455760405162461bcd60e51b815260206004820152601e60248201527f53686f756c64206e6f7420626520636f6e7472616374206164647265737300006044820152606401610402565b610653600880546001019055565b600061065e60085490565b905061066a8482610dcb565b6106aa8184848080601f016020809104026020016040519081016040528093929190818152602001838380828437600092019190915250610efe92505050565b836001600160a01b03167f413f0aa500edc09068aee45795c239c6505d330d87a370081bb70193d2797a598484846040516106e793929190611847565b60405180910390a250505050565b61053783838360405180602001604052806000815250610872565b600061071b60085490565b905090565b6000818152600260205260408120546001600160a01b0316806103025760405162461bcd60e51b815260206004820152602960248201527f4552433732313a206f776e657220717565727920666f72206e6f6e657869737460448201526832b73a103a37b5b2b760b91b6064820152608401610402565b60006001600160a01b0382166108025760405162461bcd60e51b815260206004820152602a60248201527f4552433732313a2062616c616e636520717565727920666f7220746865207a65604482015269726f206164647265737360b01b6064820152608401610402565b506001600160a01b031660009081526003602052604090205490565b6007546001600160a01b031633146108485760405162461bcd60e51b815260040161040290611812565b6108526000610f89565b565b60606001805461031790611787565b61086e338383610fdb565b5050565b61087c3383610b46565b6108985760405162461bcd60e51b8152600401610402906117c1565b6108a4848484846110a9565b50505050565b60606108b582610abb565b61091b5760405162461bcd60e51b815260206004820152603160248201527f45524337323155524953746f726167653a2055524920717565727920666f72206044820152703737b732bc34b9ba32b73a103a37b5b2b760791b6064820152608401610402565b6000828152600660205260408120805461093490611787565b80601f016020809104026020016040519081016040528092919081815260200182805461096090611787565b80156109ad5780601f10610982576101008083540402835291602001916109ad565b820191906000526020600020905b81548152906001019060200180831161099057829003601f168201915b5050505050905060006109cb60408051602081019091526000815290565b905080516000036109dd575092915050565b815115610a0f5780826040516020016109f7929190611880565b60405160208183030381529060405292505050919050565b610a18846110dc565b949350505050565b6007546001600160a01b03163314610a4a5760405162461bcd60e51b815260040161040290611812565b6001600160a01b038116610aaf5760405162461bcd60e51b815260206004820152602660248201527f4f776e61626c653a206e6577206f776e657220697320746865207a65726f206160448201526564647265737360d01b6064820152608401610402565b610ab881610f89565b50565b6000908152600260205260409020546001600160a01b0316151590565b600081815260046020526040902080546001600160a01b0319166001600160a01b0384169081179091558190610b0d82610720565b6001600160a01b03167f8c5be1e5ebec7d5bd14f71427d1e84f3dd0314c0f7b2291e5b200ac8c7c3b92560405160405180910390a45050565b6000610b5182610abb565b610bb25760405162461bcd60e51b815260206004820152602c60248201527f4552433732313a206f70657261746f7220717565727920666f72206e6f6e657860448201526b34b9ba32b73a103a37b5b2b760a11b6064820152608401610402565b6000610bbd83610720565b9050806001600160a01b0316846001600160a01b03161480610c0457506001600160a01b0380821660009081526005602090815260408083209388168352929052205460ff165b80610a185750836001600160a01b0316610c1d8461039a565b6001600160a01b031614949350505050565b826001600160a01b0316610c4282610720565b6001600160a01b031614610ca65760405162461bcd60e51b815260206004820152602560248201527f4552433732313a207472616e736665722066726f6d20696e636f72726563742060448201526437bbb732b960d91b6064820152608401610402565b6001600160a01b038216610d085760405162461bcd60e51b8152602060048201526024808201527f4552433732313a207472616e7366657220746f20746865207a65726f206164646044820152637265737360e01b6064820152608401610402565b610d13600082610ad8565b6001600160a01b0383166000908152600360205260408120805460019290610d3c9084906118c5565b90915550506001600160a01b0382166000908152600360205260408120805460019290610d6a9084906118dc565b909155505060008181526002602052604080822080546001600160a01b0319166001600160a01b0386811691821790925591518493918716917fddf252ad1be2c89b69c2b068fc378daa952ba7f163c4a11628f55a4df523b3ef91a4505050565b6001600160a01b038216610e215760405162461bcd60e51b815260206004820181905260248201527f4552433732313a206d696e7420746f20746865207a65726f20616464726573736044820152606401610402565b610e2a81610abb565b15610e775760405162461bcd60e51b815260206004820152601c60248201527f4552433732313a20746f6b656e20616c7265616479206d696e746564000000006044820152606401610402565b6001600160a01b0382166000908152600360205260408120805460019290610ea09084906118dc565b909155505060008181526002602052604080822080546001600160a01b0319166001600160a01b03861690811790915590518392907fddf252ad1be2c89b69c2b068fc378daa952ba7f163c4a11628f55a4df523b3ef908290a45050565b610f0782610abb565b610f6a5760405162461bcd60e51b815260206004820152602e60248201527f45524337323155524953746f726167653a2055524920736574206f66206e6f6e60448201526d32bc34b9ba32b73a103a37b5b2b760911b6064820152608401610402565b60008281526006602090815260409091208251610537928401906113b6565b600780546001600160a01b038381166001600160a01b0319831681179093556040519116919082907f8be0079c531659141344cd1fd0a4f28419497f9722a3daafe3b4186f6b6457e090600090a35050565b816001600160a01b0316836001600160a01b03160361103c5760405162461bcd60e51b815260206004820152601960248201527f4552433732313a20617070726f766520746f2063616c6c6572000000000000006044820152606401610402565b6001600160a01b03838116600081815260056020908152604080832094871680845294825291829020805460ff191686151590811790915591519182527f17307eab39ab6107e8899845ad3d59bd9653f200f220920489ca2b5937696c31910160405180910390a3505050565b6110b4848484610c2f565b6110c0848484846111b4565b6108a45760405162461bcd60e51b8152600401610402906118f4565b60606110e782610abb565b61114b5760405162461bcd60e51b815260206004820152602f60248201527f4552433732314d657461646174613a2055524920717565727920666f72206e6f60448201526e3732bc34b9ba32b73a103a37b5b2b760891b6064820152608401610402565b600061116260408051602081019091526000815290565b9050600081511161118257604051806020016040528060008152506111ad565b8061118c846112b5565b60405160200161119d929190611880565b6040516020818303038152906040525b9392505050565b60006001600160a01b0384163b156112aa57604051630a85bd0160e11b81526001600160a01b0385169063150b7a02906111f8903390899088908890600401611946565b6020604051808303816000875af1925050508015611233575060408051601f3d908101601f1916820190925261123091810190611983565b60015b611290573d808015611261576040519150601f19603f3d011682016040523d82523d6000602084013e611266565b606091505b5080516000036112885760405162461bcd60e51b8152600401610402906118f4565b805181602001fd5b6001600160e01b031916630a85bd0160e11b149050610a18565b506001949350505050565b6060816000036112dc5750506040805180820190915260018152600360fc1b602082015290565b8160005b811561130657806112f0816119a0565b91506112ff9050600a836119cf565b91506112e0565b60008167ffffffffffffffff81111561132157611321611662565b6040519080825280601f01601f19166020018201604052801561134b576020820181803683370190505b5090505b8415610a18576113606001836118c5565b915061136d600a866119e3565b6113789060306118dc565b60f81b81838151811061138d5761138d6119f7565b60200101906001600160f81b031916908160001a9053506113af600a866119cf565b945061134f565b8280546113c290611787565b90600052602060002090601f0160209004810192826113e4576000855561142a565b82601f106113fd57805160ff191683800117855561142a565b8280016001018555821561142a579182015b8281111561142a57825182559160200191906001019061140f565b5061143692915061143a565b5090565b5b80821115611436576000815560010161143b565b6001600160e01b031981168114610ab857600080fd5b60006020828403121561147757600080fd5b81356111ad8161144f565b60005b8381101561149d578181015183820152602001611485565b838111156108a45750506000910152565b600081518084526114c6816020860160208601611482565b601f01601f19169290920160200192915050565b6020815260006111ad60208301846114ae565b6000602082840312156114ff57600080fd5b5035919050565b80356001600160a01b038116811461151d57600080fd5b919050565b6000806040838503121561153557600080fd5b61153e83611506565b946020939093013593505050565b60008060006060848603121561156157600080fd5b61156a84611506565b925061157860208501611506565b9150604084013590509250925092565b60008060006040848603121561159d57600080fd5b6115a684611506565b9250602084013567ffffffffffffffff808211156115c357600080fd5b818601915086601f8301126115d757600080fd5b8135818111156115e657600080fd5b8760208285010111156115f857600080fd5b6020830194508093505050509250925092565b60006020828403121561161d57600080fd5b6111ad82611506565b6000806040838503121561163957600080fd5b61164283611506565b91506020830135801515811461165757600080fd5b809150509250929050565b634e487b7160e01b600052604160045260246000fd5b6000806000806080858703121561168e57600080fd5b61169785611506565b93506116a560208601611506565b925060408501359150606085013567ffffffffffffffff808211156116c957600080fd5b818701915087601f8301126116dd57600080fd5b8135818111156116ef576116ef611662565b604051601f8201601f19908116603f0116810190838211818310171561171757611717611662565b816040528281528a602084870101111561173057600080fd5b82602086016020830137600060208483010152809550505050505092959194509250565b6000806040838503121561176757600080fd5b61177083611506565b915061177e60208401611506565b90509250929050565b600181811c9082168061179b57607f821691505b6020821081036117bb57634e487b7160e01b600052602260045260246000fd5b50919050565b60208082526031908201527f4552433732313a207472616e736665722063616c6c6572206973206e6f74206f6040820152701ddb995c881b9bdc88185c1c1c9bdd9959607a1b606082015260800190565b6020808252818101527f4f776e61626c653a2063616c6c6572206973206e6f7420746865206f776e6572604082015260600190565b604081528260408201528284606083013760006060848301015260006060601f19601f8601168301019050826020830152949350505050565b60008351611892818460208801611482565b8351908301906118a6818360208801611482565b01949350505050565b634e487b7160e01b600052601160045260246000fd5b6000828210156118d7576118d76118af565b500390565b600082198211156118ef576118ef6118af565b500190565b60208082526032908201527f4552433732313a207472616e7366657220746f206e6f6e20455243373231526560408201527131b2b4bb32b91034b6b83632b6b2b73a32b960711b606082015260800190565b6001600160a01b0385811682528416602082015260408101839052608060608201819052600090611979908301846114ae565b9695505050505050565b60006020828403121561199557600080fd5b81516111ad8161144f565b6000600182016119b2576119b26118af565b5060010190565b634e487b7160e01b600052601260045260246000fd5b6000826119de576119de6119b9565b500490565b6000826119f2576119f26119b9565b500690565b634e487b7160e01b600052603260045260246000fdfea2646970667358221220cbff53124586edf41d7c42cb0d69a0b110298d87d1d6ec07e3079b07f9a25a4264736f6c634300080d0033",
    "linkReferences": {},
    "deployedLinkReferences": {}
}